:100000000C9448000C945D000C945D000C945D0011
:100010000C945D000C945D000C945D000C945D00EC
:100020000C945D000C945D000C945D000C945D00DC
:100030000C945D000C945D000C945D000C945D00CC
:100040000C945D000C945D000C945D000C945D00BC
:100050000C945D000C945D000C945D000C945D00AC
:100060000C945D000C945D000C945D000C945D009C
:100070000C945D000C945D000C945D000C945D008C
:100080000C945D000C945D000C945D000C945D007C
:1000900011241FBECFEFCDBFDFE3DEBF18E2A0E02B
:1000A000B8E2EAE1F2E002C005900D92A230B10799
:1000B000D9F70E945F000C9406010C940000CF93C6
:1000C000DF93CDB7DEB72C97CDBFDEBF8AE0E0E18E
:1000D000F2E4DE01139601900D928A95E1F7CE01CC
:1000E00003960E9488008091002890910128892B16
:1000F00019F08B859C8502C08B819C8189839A83B2
:1001000080E090E02C96CDBFDEBFDF91CF910895C7
:10011000CF93DF93CDB7DEB72897CDBFDEBF8F83F8
:10012000988719821A8266C01B821C8252C08B81FA
:100130009C81880F991F2F813885820F931FFC01A6
:10014000208131818B819C810196880F991F4F817D
:100150005885840F951FFC01808191818217930738
:100160009CF58B819C81880F991F2F813885820F88
:10017000931FFC01808191818D839E838B819C8163
:10018000880F991F2F813885820F931F2B813C8107
:100190002F5F3F4F220F331F4F815885240F351F8C
:1001A000F90120813181FC01208331838B819C8185
:1001B0000196880F991F2F813885820F931F2D81FB
:1001C0003E81FC01208331838B819C8101968B834E
:1001D0009C8324E030E089819A81281B390B8B8134
:1001E0009C81821793070CF4A2CF89819A81019692
:1001F00089839A8389819A8105970CF495CF0000B1
:100200002896CDBFDEBFDF91CF910895F894FFCF40
:0A0210000100020061000400050077
:02021A000100E1
:00000001FF
