:100000000C9448000C945A000C945A000C945A001A
:100010000C945A000C945A000C945A000C945A00F8
:100020000C945A000C945A000C945A000C945A00E8
:100030000C945A000C945A000C945A000C945A00D8
:100040000C945A000C945A000C945A000C945A00C8
:100050000C945A000C945A000C945A000C945A00B8
:100060000C945A000C945A000C945A000C945A00A8
:100070000C945A000C945A000C945A000C945A0098
:100080000C945A000C945A000C945A000C945A0088
:1000900011241FBECFEFCDBFDFE3DEBF28E2A0E01B
:1000A000B8E201C01D92A230B207E1F70E94280118
:1000B0000C9445010C940000CF93DF93CDB7DEB7CD
:1000C0002697CDBFDEBF8D839E838D819E810E944A
:1000D0003C018B839C8319821A82ABC089819A81EF
:1000E0002D813E81820F931FFC01808141E081368A
:1000F00009F040E089819A812D813E81820F931F12
:10010000FC01908181E0953609F080E0842B282F56
:1001100030E089819A814D815E81840F951FFC01B9
:10012000908181E0993609F080E0882F90E0282BBB
:10013000392B89819A814D815E81840F951FFC0145
:10014000908181E09F3609F080E0882F90E0282B95
:10015000392B89819A814D815E81840F951FFC0125
:10016000908181E0953709F080E0882F90E0282B7E
:10017000392B89819A814D815E81840F951FFC0105
:10018000908181E0913409F080E0882F90E0282B65
:10019000392B89819A814D815E81840F951FFC01E5
:1001A000908181E0953409F080E0882F90E0282B41
:1001B000392B89819A814D815E81840F951FFC01C5
:1001C000908181E0993409F080E0882F90E0282B1D
:1001D000392B89819A814D815E81840F951FFC01A5
:1001E000908181E09F3409F080E0882F90E0282BF7
:1001F000392B89819A814D815E81840F951FFC0185
:10020000908181E0953509F080E0882F90E0822B85
:10021000932B892B49F08091002890910128019619
:10022000809300289093012889819A81019689837F
:100230009A8329813A818B819C81281739070CF494
:100240004DCF00002696CDBFDEBFDF91CF91089540
:10025000CF93DF9300D0CDB7DEB78EE892E48983E9
:100260009A8389819A810E945C0080E090E00F90DF
:100270000F90DF91CF910895FC0101900020E9F7E4
:0E028000809590958E0F9F1F0895F894FFCFE4
:0C028E004D495353495353495050490007
:00000001FF
