S00B00006D79312E7372656302
S11300000C9448000C9452000C9452000C9452002E
S11300100C9452000C9452000C9452000C94520014
S11300200C9452000C9452000C9452000C94520004
S11300300C9452000C9452000C9452000C945200F4
S11300400C9452000C9452000C9452000C945200E4
S11300500C9452000C9452000C9452000C945200D4
S11300600C9452000C9452000C9452000C945200C4
S11300700C9452000C9452000C9452000C945200B4
S11300800C9452000C9452000C9452000C945200A4
S113009011241FBECFEFCDBFDFE3DEBF0E9471008E
S11300A00C9485000C940000CF93DF93CDB7DEB79A
S11300B02697CDBFDEBF8B839C836D837E838B812C
S11300C09C81382F22278D819E81822B932B8983BB
S11300D09A8389819A812696CDBFDEBFDF91CF9125
S11300E00895CF93DF9300D0CDB7DEB765E070E01D
S11300F088E090E00E94540089839A8380E090E035
S11101000F900F90DF91CF910895F894FFCFE8
S9030000FC
