:100000000C9448000C9452000C9452000C94520032
:100010000C9452000C9452000C9452000C94520018
:100020000C9452000C9452000C9452000C94520008
:100030000C9452000C9452000C9452000C945200F8
:100040000C9452000C9452000C9452000C945200E8
:100050000C9452000C9452000C9452000C945200D8
:100060000C9452000C9452000C9452000C945200C8
:100070000C9452000C9452000C9452000C945200B8
:100080000C9452000C9452000C9452000C945200A8
:1000900011241FBECFEFCDBFDFE3DEBF0E9498006B
:1000A0000C94E0000C940000CF93DF93CDB7DEB743
:1000B0002C97CDBFDEBF89879A876B877C87298580
:1000C0003A858B859C85821793070CF4C9018D8333
:1000D0009E831F8218861B821C821BC089859A857D
:1000E0002B813C81B9010E94B800892B69F48B8572
:1000F0009C852B813C81B9010E94B800892B21F499
:100100008B819C8189839A838B819C8101968B83CF
:100110009C832B813C818D819E8128173907F4F2C5
:1001200089819A812C96CDBFDEBFDF91CF91089552
:10013000CF93DF93CDB7DEB72697CDBFDEBF84E187
:1001400090E089839A8384E690E08B839C832B8163
:100150003C8189819A81B9010E9454008D839E83DC
:1001600080E090E02696CDBFDEBFDF91CF9108956D
:1001700097FB072E16F4009407D077FD09D00E9454
:10018000CC0007FC05D03EF4909581959F4F0895D3
:10019000709561957F4F0895AA1BBB1B51E107C065
:1001A000AA1FBB1FA617B70710F0A61BB70B881F07
:1001B000991F5A95A9F780959095BC01CD01089596
:0401C000F894FFCFE1
:00000001FF
