:100000000C9448000C945A000C945A000C945A001A
:100010000C945A000C945A000C945A000C945A00F8
:100020000C945A000C945A000C945A000C945A00E8
:100030000C945A000C945A000C945A000C945A00D8
:100040000C945A000C945A000C945A000C945A00C8
:100050000C945A000C945A000C945A000C945A00B8
:100060000C945A000C945A000C945A000C945A00A8
:100070000C945A000C945A000C945A000C945A0098
:100080000C945A000C945A000C945A000C945A0088
:1000900011241FBECFEFCDBFDFE3DEBF28E2A0E01B
:1000A000B8E201C01D92A230B207E1F70E945C00E5
:1000B0000C94D7000C940000CF93DF93CDB7DEB73C
:1000C0002A97CDBFDEBF88E0E2EBF1E4DE011396B4
:1000D00001900D928A95E1F7CE0103960E947A0075
:1000E00089839A8380E090E02A96CDBFDEBFDF91BE
:1000F000CF910895CF93DF9300D000D0CDB7DEB776
:100100008B839C8319821A8240C089819A812B81BA
:100110003C81820F931FFC018081813641F18981EE
:100120009A812B813C81820F931FFC01808185364F
:10013000F1F089819A812B813C81820F931FFC0110
:1001400080818936A1F089819A812B813C81820F3F
:10015000931FFC0180818F3651F089819A812B8118
:100160003C81820F931FFC018081853749F4809187
:1001700000289091012801968093002890930128EF
:1001800089819A81019689839A8389819A812B81B9
:100190003C81820F931FFC018081882309F0B5CF39
:1001A00000002496CDBFDEBFDF91CF910895F89473
:0201B000FFCF7F
:0801B200616469746879610061
:00000001FF
