:100000000C9448000C9452000C9452000C94520032
:100010000C9452000C9452000C9452000C94520018
:100020000C9452000C9452000C9452000C94520008
:100030000C9452000C9452000C9452000C945200F8
:100040000C9452000C9452000C9452000C945200E8
:100050000C9452000C9452000C9452000C945200D8
:100060000C9452000C9452000C9452000C945200C8
:100070000C9452000C9452000C9452000C945200B8
:100080000C9452000C9452000C9452000C945200A8
:1000900011241FBECFEFCDBFDFE3DEBF0E9496006D
:1000A0000C94BD000C940000CF93DF93CDB7DEB766
:1000B0002A97CDBFDEBF8D839E836F837887498764
:1000C0005A871B821C8219821A821CC089819A81DC
:1000D000880F991F2D813E81820F931FFC01208183
:1000E000318189859A852817390739F481E090E0B4
:1000F0008B839C8389819A8113C089819A8101961F
:1001000089839A8329813A818F81988528173907B5
:10011000ECF28B819C81892B19F48FEF9FEF00C04B
:100120002A96CDBFDEBFDF91CF910895CF93DF93A5
:10013000CDB7DEB72E97CDBFDEBF85E090E08983D7
:100140009A838AE0EEE7F1E4DE01159601900D92C4
:100150008A95E1F7CE01059629813A8143E050E086
:10016000B9010E9454008B839C8380E090E02E961E
:0E017000CDBFDEBFDF91CF910895F894FFCF91
:0A017E000200050003000100070065
:00000001FF
