S00A000071362E7372656373
S11300000C9448000C945D000C945D000C945D000D
S11300100C945D000C945D000C945D000C945D00E8
S11300200C945D000C945D000C945D000C945D00D8
S11300300C945D000C945D000C945D000C945D00C8
S11300400C945D000C945D000C945D000C945D00B8
S11300500C945D000C945D000C945D000C945D00A8
S11300600C945D000C945D000C945D000C945D0098
S11300700C945D000C945D000C945D000C945D0088
S11300800C945D000C945D000C945D000C945D0078
S113009011241FBECFEFCDBFDFE3DEBF18E2A0E027
S11300A0B8E2E6E3F8E002C005900D92A230B10791
S11300B0D9F70E9462010C9405040C940000CF92BD
S11300C0DF92EF92FF92CF93DF93CDB7DEB72C97F9
S11300D0CDBFDEBF6F83788789879A874B875C871C
S11300E08B859C85BC0182E090E00E94BE00DC010F
S11300F0CB010197A109B10989839A83AB83BC839E
S113010069817A818B819C810E94E202DC01CB01AE
S11301102F81388549855A85BC01CD010E946E0323
S1130120DC01CB016C017D018091002890910128B4
S1130130092E000CAA0BBB0BBC01CD010E94E202EC
S1130140DC01CB019C01AD01C701B6010E9438025C
S1130150DC01CB01BC01CD010E94AA02DC01CB0170
S11301608D839E838D819E812C96CDBFDEBFDF91D2
S1130170CF91FF90EF90DF90CF900895CF93DF93CE
S1130180CDB7DEB72897CDBFDEBF8D839E836F8347
S1130190788781E090E0A0E0B0E089839A83AB8324
S11301A0BC8319C08D819E81092E000CAA0BBB0B48
S11301B029813A814B815C81BC01CD010E94DB0322
S11301C0DC01CB0189839A83AB83BC838F819885BF
S11301D001978F8398878F819885892B19F7898157
S11301E09A81AB81BC81BC01CD012896CDBFDEBF15
S11301F0DF91CF910895CF92DF92EF92FF92CF9348
S1130200DF93CDB7DEB72C97CDBFDEBF89879A8742
S11302106B877C878B859C85BC0182E090E00E9483
S1130220BE00DC01CB010197A109B10989839A833E
S1130230AB83BC8389859A85092E000CAA0BBB0B62
S1130240BC01CD010E94E2026B017C018091002877
S113025090910128092E000CAA0BBB0BBC01CD0107
S11302600E94E202DC01CB019C01AD01C701B60191
S11302700E946E03DC01CB016C017D0169817A81EE
S11302808B819C810E94E202DC01CB019C01AD01C7
S1130290C701B6010E943802DC01CB018D839E8325
S11302A0AF83B8878D819E81AF81B885BC01CD01B4
S11302B02C96CDBFDEBFDF91CF91FF90EF90DF9002
S11302C0CF900895CF93DF93CDB7DEB7E497CDBF3A
S11302D0DEBF88E2EEE0F8E4DE011D9601900D92A7
S11302E08A95E1F719821A8249C089819A81880F17
S11302F0991F880F991F9E012F5F3F4F820F931FF5
S11303000C96FC0180819181A281B3814EE050E082
S1130310BC01CD010E945F008B839C838B819C81F7
S11303206EE070E00E94FB00DC01CB018D839E83B4
S1130330AF83B88789819A81880F991F880F991F85
S11303409E012F5F3F4F820F931F0C96FC0180810B
S11303509181A281B3819C01AD016D817E818F81E8
S113036098850E94CB01DC01CB0189879A87AB87F2
S1130370BC8789819A81019689839A8389819A812C
S11303800A970CF4B2CF80E090E0E496CDBFDEBFD4
S1130390DF91CF9108955058BB27AA270E94E3010B
S11303A00C9434030E94260338F00E942D0320F09D
S11303B039F49F3F19F426F40C9423030EF4E095CA
S11303C0E7FB0C941D03E92F0E94450358F3BA1769
S11303D0620773078407950720F079F4A6F50C9457
S11303E067030EF4E0950B2EBA2FA02D0B01B90173
S11303F090010C01CA01A0011124FF27591B99F097
S1130400593F50F4503E68F11A16F040A22F232FA2
S1130410342F4427585FF3CF469537952795A795F2
S1130420F0405395C9F77EF41F16BA0B620B730B99
S1130430840BBAF09150A1F0FF0FBB1F661F771F0A
S1130440881FC2F70EC0BA0F621F731F841F48F4BF
S1130450879577956795B795F7959E3F08F0B0CF48
S11304609395880F08F09927EE0F9795879508952F
S11304700E944C020C9434030E942D0358F00E94F5
S1130480260340F029F45F3F29F00C941D03511119
S11304900C9468030C9423030E94450368F3992386
S11304A0B1F3552391F3951B550BBB27AA2762176C
S11304B07307840738F09F5F5F4F220F331F441F79
S11304C0AA1FA9F335D00E2E3AF0E0E832D09150AD
S11304D05040E695001CCAF72BD0FE2F29D0660F9A
S11304E0771F881FBB1F261737074807AB07B0E8DD
S11304F009F0BB0B802DBF01FF2793585F4F3AF0E3
S11305009E3F510578F00C941D030C9468035F3FE3
S1130510E4F3983ED4F3869577956795B795F79568
S11305209F5FC9F7880F911D9695879597F9089550
S1130530E1E0660F771F881FBB1F621773078407EC
S1130540BA0720F0621B730B840BBA0BEE1F88F7FB
S1130550E09508950E94B1026894B1110C94680367
S113056008950E944D0388F09F5798F0B92F99275A
S1130570B751B0F0E1F0660F771F881F991F1AF08A
S1130580BA95C9F714C0B13091F00E946703B1E085
S113059008950C946703672F782F8827B85F39F084
S11305A0B93FCCF3869577956795B395D9F73EF423
S11305B090958095709561957F4F8F4F9F4F0895CB
S11305C0E89409C097FB3EF49095809570956195E9
S11305D07F4F8F4F9F4F9923A9F0F92F96E9BB279F
S11305E09395F695879577956795B795F111F8CF1B
S11305F0FAF4BB0F11F460FF1BC06F5F7F4F8F4F86
S11306009F4F16C0882311F096E911C0772321F07B
S11306109EE8872F762F05C0662371F096E8862F13
S113062070E060E02AF09A95660F771F881FDAF76A
S1130630880F9695879597F9089597F99F6780E8AD
S113064070E060E008959FEF80EC089500240A9420
S11306501616170618060906089500240A94121699
S11306601306140605060895092E0394000C11F4CC
S1130670882352F0BB0F40F4BF2B11F460FF04C079
S11306806F5F7F4F8F4F9F4F089557FD9058440FD2
S1130690551F59F05F3F71F04795880F97FB991FDD
S11306A061F09F3F79F0879508951216130614069A
S11306B0551FF2CF4695F1DF08C016161706180627
S11306C0991FF1CF86957105610508940895E89402
S11306D0BB2766277727CB0197F908950E948103EA
S11306E00C9434030E94260338F00E942D0320F05A
S11306F0952311F00C941D030C94230311240C94E2
S113070068030E94450370F3959FC1F3950F50E071
S1130710551F629FF001729FBB27F00DB11D639FAF
S1130720AA27F00DB11DAA1F649F6627B00DA11D55
S1130730661F829F2227B00DA11D621F739FB00DFB
S1130740A11D621F839FA00D611D221F749F33276B
S1130750A00D611D231F849F600D211D822F762F04
S11307606A2F11249F5750409AF0F1F088234AF0E1
S1130770EE0FFF1FBB1F661F771F881F915050404D
S1130780A9F79E3F510580F00C941D030C94680357
S11307905F3FE4F3983ED4F3869577956795B795D4
S11307A0F795E7959F5FC1F7FE2B880F911D9695EE
S11307B0879597F90895DB018F939F930E94EB032C
S11307C0BF91AF91A29F800D911DA39F900DB29FE9
S11307D0900D112408950E94F603A59F900DB49FD7
S11307E0900DA49F800D911D11240895A29FB00126
S11307F0B39FC001A39F700D811D1124911DB29F51
S1110800700D811D1124911D0895F894FFCFF1
S113080E9A99193FCDCC4C3F9A99993F0000C03F1D
S113081E6666E63F3333F33FCDCC2C4066664640E6
S10B082E7B144E4033335340A8
S10508360500B7
S9030000FC
