:100000000C9448000C9452000C9452000C94520032
:100010000C9452000C9452000C9452000C94520018
:100020000C9452000C9452000C9452000C94520008
:100030000C9452000C9452000C9452000C945200F8
:100040000C9452000C9452000C9452000C945200E8
:100050000C9452000C9452000C9452000C945200D8
:100060000C9452000C9452000C9452000C945200C8
:100070000C9452000C9452000C9452000C945200B8
:100080000C9452000C9452000C9452000C945200A8
:1000900011241FBECFEFCDBFDFE3DEBF0E945400AF
:1000A0000C94B1000C940000CF93DF93CDB7DEB772
:1000B0006897CDBFDEBF84E1E6E6F1E4DE01159688
:1000C00001900D928A95E1F781E090E089839A830F
:1000D000CE01059629813A81B9010E9479008B836E
:1000E0009C838B819C816896CDBFDEBFDF91CF91D1
:1000F0000895CF93DF93CDB7DEB72897CDBFDEBF8E
:100100008D839E836F83788719821A821EC08981AE
:100110009A81880F991F2D813E81820F931FFC01C8
:10012000208131818F8198852817390729F48981A9
:100130009A818B839C830DC08FEF9FEF8B839C8371
:1001400089819A81019689839A8389819A810A9704
:10015000F4F28B819C812896CDBFDEBFDF91CF91D9
:060160000895F894FFCFA2
:1001660005000600040007000800360001000C0028
:0401760024000B0056
:00000001FF
