S011000067726F7570776F726B2E7372656323
S11300000C9448000C9452000C9452000C9452002E
S11300100C9452000C9452000C9452000C94520014
S11300200C9452000C9452000C9452000C94520004
S11300300C9452000C9452000C9452000C945200F4
S11300400C9452000C9452000C9452000C945200E4
S11300500C9452000C9452000C9452000C945200D4
S11300600C9452000C9452000C9452000C945200C4
S11300700C9452000C9452000C9452000C945200B4
S11300800C9452000C9452000C9452000C945200A4
S113009011241FBECFEFCDBFDFE3DEBF0E947C0083
S11300A00C94C7000C940000CF93DF93CDB7DEB758
S11300B00000DF91CF910895CF93DF93CDB7DEB7E2
S11300C00000DF91CF910895CF93DF93CDB7DEB7D2
S11300D00000DF91CF910895CF93DF93CDB7DEB7C2
S11300E00000DF91CF910895CF93DF93CDB7DEB7B2
S11300F00000DF91CF910895CF93DF93CDB7DEB7A2
S11301000E9454000E945C000E9464000E946C00E3
S11301100E94AB000E94740080E090E0DF91CF91D8
S11301200895CF93DF93CDB7DEB72697CDBFDEBF5B
S11301308B839C836D837E832B813C818D819E8107
S1130140820F931F89839A8300002696CDBFDEBF5A
S1130150DF91CF910895CF93DF9300D000D0CDB736
S1130160DEB78AE090E089839A8384E190E08B8310
S11301709C832B813C8189819A81B9010E949100E1
S113018000002496CDBFDEBFDF91CF910895F8948F
S1050190FFCF9B
S9030000FC
