S00C0000737761702E737265635D
S11300000C9434000C943E000C943E000C943E007E
S11300100C943E000C943E000C943E000C943E0064
S11300200C943E000C943E000C943E000C943E0054
S11300300C943E000C943E000C943E000C943E0044
S11300400C943E000C943E000C943E000C943E0034
S11300500C943E000C943E000C943E000C943E0024
S11300600C943E000C943E0011241FBECFEFD8E048
S1130070DEBFCDBF0E946D000C9499000C9400006B
S1130080CF93DF9300D000D000D0CDB7DEB79C83F0
S11300908B837E836D838B819C81FC018081918124
S11300A09A8389838D819E81FC01208131818B819A
S11300B09C81FC01318320838D819E8129813A8139
S11300C0FC0131832083000026960FB6F894DEBF2E
S11300D00FBECDBFDF91CF910895CF93DF93CDB7FE
S11300E0DEB728970FB6F894DEBF0FBECDBF82E00F
S11300F090E09E838D8384E090E098878F83CE0187
S113010005969A838983CE0107969C838B832B81E2
S11301103C8189819A81B9010E94400080E090E08D
S113012028960FB6F894DEBF0FBECDBFDF91CF91F6
S10901300895F894FFCFCE
S9030000FC
