:100000000C9448000C9465000C9465000C946500F9
:100010000C9465000C9465000C9465000C946500CC
:100020000C9465000C9465000C9465000C946500BC
:100030000C9465000C9465000C9465000C946500AC
:100040000C9465000C9465000C9465000C9465009C
:100050000C9465000C9465000C9465000C9465008C
:100060000C9465000C9465000C9465000C9465007C
:100070000C9465000C9465000C9465000C9465006C
:100080000C9465000C9465000C9465000C9465005C
:1000900011241FBECFEFCDBFDFE3DEBF18E2A0E02B
:1000A000B8E2EAEDF7E002C005900D92A430B10786
:1000B000D9F728E2A4E0B8E201C01D92A430B2074B
:1000C000E1F70E9419010C94EB030C940000CF920D
:1000D000DF92EF92FF92CF93DF93CDB7DEB72C97ED
:1000E000CDBFDEBF6F83788789879A874B875C8710
:1000F0008B859C85BC0182E090E00E947201DC014E
:10010000CB010197A109B10989839A83AB83BC8391
:100110008091002890910128A0910228B091032895
:100120009C01AD016F81788589859A850E941E02A8
:10013000DC01CB016C017D0169817A818B819C811D
:100140000E94C802DC01CB019C01AD01C701B601D0
:100150000E945403DC01CB01BC01CD010E9490023E
:10016000DC01CB018D839E838D819E812C96CDBF3A
:10017000DEBFDF91CF91FF90EF90DF90CF90089599
:10018000EF92FF920F931F93CF93DF93CDB7DEB71C
:100190002E97CDBFDEBF69877A878B879C874D8777
:1001A0005E878D859E85BC0182E090E00E94720191
:1001B000DC01CB010197A109B10989839A83AB8343
:1001C000BC8369817A818B819C810E94C802DC0199
:1001D000CB019C01AD0169857A858B859C850E9448
:1001E0001E02DC01CB017C018D01809100289091E1
:1001F0000128A0910228B09103289C01AD01C801FB
:10020000B7010E945403DC01CB018D839E83AF8331
:10021000B8878D819E81AF81B885BC01CD012E96B6
:10022000CDBFDEBFDF91CF911F910F91FF90EF9077
:100230000895CF93DF93CDB7DEB76497CDBFDEBF10
:1002400080E090E0A0E0B0E489839A83AB83BC8334
:100250008EE090E08D839E8380E190E08F8398878D
:100260002D813E8189819A81AB81BC81A901BC012C
:10027000CD010E946700092E000CAA0BBB0BBC012C
:10028000CD010E94C802DC01CB0189879A87AB8728
:10029000BC872F81388589859A85AB85BC85A90166
:1002A000BC01CD010E94C000DC01CB018D879E877F
:1002B000AF87B88B2D853E854F85588969817A81B6
:1002C0008B819C810E94B101DC01CB01898B9A8BCF
:1002D000AB8BBC8B80E090E06496CDBFDEBFDF913E
:1002E000CF910895CF93DF93CDB7DEB72897CDBFD9
:1002F000DEBF8D839E836F8378878D819E81092EDB
:10030000000CAA0BBB0B89839A83AB83BC8319C0F7
:100310008D819E81092E000CAA0BBB0B29813A818D
:100320004B815C81BC01CD010E94C103DC01CB018A
:1003300089839A83AB83BC838F81988501978F8350
:1003400098878F81988502971CF789819A81AB8164
:10035000BC81BC01CD012896CDBFDEBFDF91CF911E
:1003600008955058BB27AA270E94C9010C941A036C
:100370000E940C0338F00E94130320F039F49F3FD1
:1003800019F426F40C9409030EF4E095E7FB0C94A1
:100390000303E92F0E942B0358F3BA176207730770
:1003A0008407950720F079F4A6F50C944D030EF41C
:1003B000E0950B2EBA2FA02D0B01B90190010C0175
:1003C000CA01A0011124FF27591B99F0593F50F48D
:1003D000503E68F11A16F040A22F232F342F4427E5
:1003E000585FF3CF469537952795A795F0405395DD
:1003F000C9F77EF41F16BA0B620B730B840BBAF0AD
:100400009150A1F0FF0FBB1F661F771F881FC2F717
:100410000EC0BA0F621F731F841F48F4879577952B
:100420006795B795F7959E3F08F0B0CF9395880FE5
:1004300008F09927EE0F9795879508950E9432024C
:100440000C941A030E94130358F00E940C0340F00E
:1004500029F45F3F29F00C94030351110C944E03CF
:100460000C9409030E942B0368F39923B1F35523DD
:1004700091F3951B550BBB27AA27621773078407B7
:1004800038F09F5F5F4F220F331F441FAA1FA9F34D
:1004900035D00E2E3AF0E0E832D091505040E6953B
:1004A000001CCAF72BD0FE2F29D0660F771F881F9C
:1004B000BB1F261737074807AB07B0E809F0BB0B8F
:1004C000802DBF01FF2793585F4F3AF09E3F5105A3
:1004D00078F00C9403030C944E035F3FE4F3983ED2
:1004E000D4F3869577956795B795F7959F5FC9F78C
:1004F000880F911D9695879597F90895E1E0660F0D
:10050000771F881FBB1F621773078407BA0720F085
:10051000621B730B840BBA0BEE1F88F7E0950895EE
:100520000E9497026894B1110C944E0308950E94A2
:10053000330388F09F5798F0B92F9927B751B0F03F
:10054000E1F0660F771F881F991F1AF0BA95C9F757
:1005500014C0B13091F00E944D03B1E008950C94A5
:100560004D03672F782F8827B85F39F0B93FCCF358
:10057000869577956795B395D9F73EF490958095D4
:10058000709561957F4F8F4F9F4F0895E89409C0F4
:1005900097FB3EF490958095709561957F4F8F4FB6
:1005A0009F4F9923A9F0F92F96E9BB279395F695CC
:1005B000879577956795B795F111F8CFFAF4BB0F4A
:1005C00011F460FF1BC06F5F7F4F8F4F9F4F16C0AE
:1005D000882311F096E911C0772321F09EE8872F38
:1005E000762F05C0662371F096E8862F70E060E0F4
:1005F0002AF09A95660F771F881FDAF7880F96956D
:10060000879597F9089597F99F6780E870E060E013
:1006100008959FEF80EC089500240A94161617069B
:1006200018060906089500240A94121613061406E3
:1006300005060895092E0394000C11F4882352F046
:10064000BB0F40F4BF2B11F460FF04C06F5F7F4FFE
:100650008F4F9F4F089557FD9058440F551F59F0E5
:100660005F3F71F04795880F97FB991F61F09F3F9F
:1006700079F087950895121613061406551FF2CFC8
:100680004695F1DF08C0161617061806991FF1CF18
:1006900086957105610508940895E894BB2766273F
:1006A0007727CB0197F908950E9467030C941A03EA
:1006B0000E940C0338F00E94130320F0952311F0E0
:1006C0000C9403030C94090311240C944E030E9410
:1006D0002B0370F3959FC1F3950F50E0551F629F58
:1006E000F001729FBB27F00DB11D639FAA27F00D8B
:1006F000B11DAA1F649F6627B00DA11D661F829FB2
:100700002227B00DA11D621F739FB00DA11D621F96
:10071000839FA00D611D221F749F3327A00D611DB3
:10072000231F849F600D211D822F762F6A2F112495
:100730009F5750409AF0F1F088234AF0EE0FFF1FC8
:10074000BB1F661F771F881F91505040A9F79E3F1F
:10075000510580F00C9403030C944E035F3FE4F3C7
:10076000983ED4F3869577956795B795F795E79575
:100770009F5FC1F7FE2B880F911D9695879597F97E
:100780000895DB018F939F930E94D103BF91AF9196
:10079000A29F800D911DA39F900DB29F900D1124DB
:1007A00008950E94DC03A59F900DB49F900DA49F17
:1007B000800D911D11240895A29FB001B39FC00127
:1007C000A39F700D811D1124911DB29F700D811D7D
:0A07D0001124911D0895F894FFCF45
:0407DA003333534022
:00000001FF
