S01700004763634170706C69636174696F6E312E737265635B
S11300000C9434000C9451000C9451000C94510045
S11300100C9451000C9451000C9451000C94510018
S11300200C9451000C9451000C9451000C94510008
S11300300C9451000C9451000C9451000C945100F8
S11300400C9451000C9451000C9451000C945100E8
S11300500C9451000C9451000C9451000C945100D8
S11300600C9451000C94510011241FBECFEFD8E022
S1130070DEBFCDBF11E0A0E0B1E0E6EDF7E002C0E5
S113008005900D92A031B107D9F721E0A0E1B1E0CC
S113009001C01D92A631B207E1F70E94CF000C9473
S11300A0E9030C940000CF93DF93CDB7DEB72A9712
S11300B00FB6F894DEBF0FBECDBF98878F837A87C3
S11300C069878F819885FC01808191819A838983D6
S11300D08F819885FC01808191819C838B8381E051
S11300E090E09E838D833FC08D819E81880F991FF0
S11300F02F813885820F931FFC01208131818981F2
S11301009A81821793076CF48D819E81880F991FC1
S11301102F813885820F931FFC01808191819A83FE
S113012089838D819E81880F991F2F813885820F45
S1130130931FFC01208131818B819C812817390711
S11301406CF48D819E81880F991F2F813885820FD1
S1130150931FFC01808191819C838B838D819E817F
S113016001969E838D832D813E8189859A852817EA
S113017039070CF4B9CF8091000190910101892BCA
S113018019F089819A8102C08B819C812A960FB6CD
S1130190F894DEBF0FBECDBFDF91CF910895CF930A
S11301A0DF93CDB7DEB72E970FB6F894DEBF0FBE40
S11301B0CDBF8AE0E6E0F1E0DE01159601900D92F4
S11301C08A95E1F785E090E09A83898329813A81D1
S11301D0CE010596B9010E9453009C838B838C81C8
S11301E08F938B818F9382E091E0892F8F9382E0AC
S11301F091E08F930E940B010F900F900F900F903E
S113020080E090E02E960FB6F894DEBF0FBECDBF0F
S1130210DF91CF910895A0E0B0E0E1E1F1E00C942A
S1130220C203AE014B5F5F4FFA0161917191AF015F
S113023080911201909113010E942101E2E00C943B
S1130240DE03ABE0B0E0E7E2F1E00C94B2036C0152
S11302507B018A01FC0117821682838181FFCCC154
S1130260CE0101963C01F6019381F70193FD85913E
S113027093FF81917F01882309F4BAC1853239F44F
S113028093FD859193FF81917F01853229F4B60115
S113029090E00E941803E7CF912C212C312CFFE130
S11302A0F315D8F08B3279F038F4803279F0833258
S11302B0A1F4232D20611DC08D3261F0803369F4D7
S11302C0232D216016C0832D8260382EE32DE46037
S11302D03E2E2AC0F32DF8601DC037FC2DC020ED42
S11302E0280F2A3040F08E32B9F436FC81C1232D18
S11302F02064322E19C036FE06C08AE0989E200D76
S11303001124922E11C0EAE02E9E200D1124222EDB
S1130310F32DF0623F2E08C08C3621F4832D8068C3
S1130320382E02C0883641F4F70193FD859193FF7E
S113033081917F018111B3CF982F9F7D9554933084
S113034028F40C5F1F4F9FE399830DC0833631F06F
S1130350833771F0833509F059C021C0F8018081D9
S113036089830E5F1F4F88248394912C530113C0FB
S11303702801F2E04F0E511CF801A080B18036FE36
S113038003C0692D70E002C06FEF7FEFC5010E94CA
S11303900D034C018201F32DFF773F2E16C0280177
S11303A022E0420E511CF801A080B18036FE03C049
S11303B0692D70E002C06FEF7FEFC5010E94020358
S11303C04C01F32DF0683F2E820133FC1BC0822DBB
S11303D090E088169906B0F4B60180E290E00E949D
S11303E018032A94F4CFF50137FC859137FE8191E7
S11303F05F01B60190E00E94180321102A9421E0C5
S1130400821A91088114910471F7E8C0843611F0BE
S1130410893641F5F80137FE07C060817181828118
S113042093810C5F1F4F08C060817181072E000CFF
S1130430880B990B0E5F1F4FF32DFF763F2E97FF0E
S113044009C090958095709561957F4F8F4F9F4F10
S1130450F0683F2E2AE030E0A3010E945403882E66
S1130460861845C0853731F4232D2F7EB22E2AE01D
S113047030E025C0932D997FB92E8F36C1F018F442
S1130480883579F0B5C0803719F0883721F0B0C0CD
S1130490E92FE061BE2EB4FE0DC0FB2DF460BF2E2B
S11304A009C034FE0AC0292F2660B22E06C028E0F7
S11304B030E005C020E130E002C020E132E0F80184
S11304C0B7FE07C060817181828193810C5F1F4FE9
S11304D006C06081718180E090E00E5F1F4FA30130
S11304E00E945403882E8618FB2DFF773F2E36FE7C
S11304F00DC0232D2E7FA22E891458F434FE0BC078
S113050032FC09C0832D8E7EA82E05C0B82CA32CE6
S113051003C0B82C01C0B92CA4FE0FC0FE01E80D25
S1130520F11D8081803321F49A2D997EA92E09C072
S1130530A2FE06C0B394B39404C08A2D867809F051
S1130540B394A3FC11C0A0FE06C0B21488F4280C16
S1130550922C9B180EC0B21460F4B60180E290E0B5
S11305600E941803B394F7CFB21418F42B1802C0E6
S1130570982C212CA4FE10C0B60180E390E00E94C8
S11305801803A2FE17C0A1FC03C088E790E002C0D4
S113059088E590E0B6010CC08A2D867859F0A1FE5A
S11305A002C08BE201C080E2A7FC8DE2B60190E0BC
S11305B00E941803891438F4B60180E390E00E9485
S11305C018039A94F7CF8A94F301E80DF11D808102
S11305D0B60190E00E9418038110F5CF222009F49F
S11305E042CEB60180E290E00E9418032A94F6CF2E
S11305F0F6018681978102C08FEF9FEF2B96E2E18F
S11306000C94CE03FC010590615070400110D8F7A2
S1130610809590958E0F9F1F0895FC016150704046
S113062001900110D8F7809590958E0F9F1F089523
S11306300F931F93CF93DF93FB01238121FD03C00D
S11306408FEF9FEF2CC022FF16C046815781248173
S113065035814217530744F4A081B1819D012F5F76
S11306603F4F318320838C93268137812F5F3F4F07
S11306703783268314C08B01EC01FB010084F185D0
S1130680E02D0995892BE1F6D80116968D919C9160
S11306901797019617969C938E931697CE01DF9128
S11306A0CF911F910F910895FA01AA27283051F193
S11306B0203181F1E8946F936E7F6E5F7F4F8F4F8F
S11306C09F4FAF4FB1E03ED0B4E03CD0670F781FEE
S11306D0891F9A1FA11D680F791F8A1F911DA11DD3
S11306E06A0F711D811D911DA11D20D009F468940C
S11306F03F912AE0269F11243019305D3193DEF6B4
S1130700CF010895462F4770405D4193B3E00FD069
S1130710C9F7F6CF462F4F70405D4A3318F0495D54
S113072031FD4052419302D0A9F7EACFB4E0A69537
S11307309795879577956795BA95C9F70097610559
S1130740710508959B01AC010A2E069457954795AF
S113075037952795BA95C9F7620F731F841F951FA4
S1130760A01D08952F923F924F925F926F927F92B5
S11307708F929F92AF92BF92CF92DF92EF92FF92AD
S11307800F931F93CF93DF93CDB7DEB7CA1BDB0B59
S11307900FB6F894DEBF0FBECDBF09942A883988FE
S11307A048885F846E847D848C849B84AA84B98405
S11307B0C884DF80EE80FD800C811B81AA81B98111
S11307C0CE0FD11D0FB6F894DEBF0FBECDBFED0125
S10907D00895F894FFCF28
S11307D6010025640A00010002000300040005006C
S9030000FC
