S0160000637265617465636F6E666C6963742E7372656348
S11300000C9448000C9452000C9452000C9452002E
S11300100C9452000C9452000C9452000C94520014
S11300200C9452000C9452000C9452000C94520004
S11300300C9452000C9452000C9452000C945200F4
S11300400C9452000C9452000C9452000C945200E4
S11300500C9452000C9452000C9452000C945200D4
S11300600C9452000C9452000C9452000C945200C4
S11300700C9452000C9452000C9452000C945200B4
S11300800C9452000C9452000C9452000C945200A4
S113009011241FBECFEFCDBFDFE3DEBF0E9472008D
S11300A00C947C000C940000CF93DF93CDB7DEB7A3
S11300B02697CDBFDEBF8AE090E089839A8384E1EE
S11300C090E08B839C8329813A818B819C81820F70
S11300D0931F8D839E8300002696CDBFDEBFDF91E4
S11300E0CF910895CF93DF93CDB7DEB70E9454002C
S10F00F00000DF91CF910895F894FFCF39
S9030000FC
